{
  "_format": "hh-sol-artifact-1",
  "contractName": "PetPolicy",
  "sourceName": "contracts/PetPolicy.sol",
  "abi": [
    {
      "anonymous": false,
      "inputs": [
        {
          "indexed": true,
          "internalType": "address",
          "name": "owner",
          "type": "address"
        },
        {
          "indexed": true,
          "internalType": "uint256",
          "name": "policyId",
          "type": "uint256"
        },
        {
          "indexed": false,
          "internalType": "uint256",
          "name": "timestamp",
          "type": "uint256"
        }
      ],
      "name": "ClaimSubmitted",
      "type": "event"
    },
    {
      "anonymous": false,
      "inputs": [
        {
          "indexed": true,
          "internalType": "address",
          "name": "owner",
          "type": "address"
        },
        {
          "indexed": true,
          "internalType": "uint256",
          "name": "policyId",
          "type": "uint256"
        }
      ],
      "name": "PolicyCreated",
      "type": "event"
    },
    {
      "anonymous": false,
      "inputs": [
        {
          "indexed": true,
          "internalType": "address",
          "name": "owner",
          "type": "address"
        },
        {
          "indexed": true,
          "internalType": "uint256",
          "name": "policyId",
          "type": "uint256"
        },
        {
          "indexed": false,
          "internalType": "uint256",
          "name": "timestamp",
          "type": "uint256"
        }
      ],
      "name": "PolicyDeactivated",
      "type": "event"
    },
    {
      "inputs": [],
      "name": "INSURED_AMOUNT",
      "outputs": [
        {
          "internalType": "uint256",
          "name": "",
          "type": "uint256"
        }
      ],
      "stateMutability": "view",
      "type": "function"
    },
    {
      "inputs": [],
      "name": "POLICY_DURATION",
      "outputs": [
        {
          "internalType": "uint256",
          "name": "",
          "type": "uint256"
        }
      ],
      "stateMutability": "view",
      "type": "function"
    },
    {
      "inputs": [],
      "name": "PREMIUM_PRICE",
      "outputs": [
        {
          "internalType": "uint256",
          "name": "",
          "type": "uint256"
        }
      ],
      "stateMutability": "view",
      "type": "function"
    },
    {
      "inputs": [
        {
          "internalType": "string",
          "name": "_petName",
          "type": "string"
        },
        {
          "internalType": "string",
          "name": "_imageURI",
          "type": "string"
        }
      ],
      "name": "createPolicy",
      "outputs": [
        {
          "internalType": "uint256",
          "name": "",
          "type": "uint256"
        }
      ],
      "stateMutability": "payable",
      "type": "function"
    },
    {
      "inputs": [
        {
          "internalType": "uint256",
          "name": "_policyId",
          "type": "uint256"
        }
      ],
      "name": "deactivatePolicy",
      "outputs": [],
      "stateMutability": "nonpayable",
      "type": "function"
    },
    {
      "inputs": [],
      "name": "getMyPolicies",
      "outputs": [
        {
          "components": [
            {
              "internalType": "address",
              "name": "owner",
              "type": "address"
            },
            {
              "internalType": "string",
              "name": "petName",
              "type": "string"
            },
            {
              "internalType": "string",
              "name": "imageURI",
              "type": "string"
            },
            {
              "internalType": "uint256",
              "name": "insuredAmount",
              "type": "uint256"
            },
            {
              "internalType": "uint256",
              "name": "startDate",
              "type": "uint256"
            },
            {
              "internalType": "uint256",
              "name": "endDate",
              "type": "uint256"
            },
            {
              "internalType": "bool",
              "name": "active",
              "type": "bool"
            },
            {
              "internalType": "uint256",
              "name": "claimCount",
              "type": "uint256"
            }
          ],
          "internalType": "struct PetPolicy.Policy[]",
          "name": "",
          "type": "tuple[]"
        }
      ],
      "stateMutability": "view",
      "type": "function"
    },
    {
      "inputs": [
        {
          "internalType": "address",
          "name": "",
          "type": "address"
        },
        {
          "internalType": "uint256",
          "name": "",
          "type": "uint256"
        }
      ],
      "name": "policies",
      "outputs": [
        {
          "internalType": "address",
          "name": "owner",
          "type": "address"
        },
        {
          "internalType": "string",
          "name": "petName",
          "type": "string"
        },
        {
          "internalType": "string",
          "name": "imageURI",
          "type": "string"
        },
        {
          "internalType": "uint256",
          "name": "insuredAmount",
          "type": "uint256"
        },
        {
          "internalType": "uint256",
          "name": "startDate",
          "type": "uint256"
        },
        {
          "internalType": "uint256",
          "name": "endDate",
          "type": "uint256"
        },
        {
          "internalType": "bool",
          "name": "active",
          "type": "bool"
        },
        {
          "internalType": "uint256",
          "name": "claimCount",
          "type": "uint256"
        }
      ],
      "stateMutability": "view",
      "type": "function"
    },
    {
      "inputs": [
        {
          "internalType": "uint256",
          "name": "_policyId",
          "type": "uint256"
        }
      ],
      "name": "submitClaim",
      "outputs": [],
      "stateMutability": "nonpayable",
      "type": "function"
    },
    {
      "inputs": [],
      "name": "totalPolicies",
      "outputs": [
        {
          "internalType": "uint256",
          "name": "",
          "type": "uint256"
        }
      ],
      "stateMutability": "view",
      "type": "function"
    },
    {
      "inputs": [
        {
          "internalType": "uint256",
          "name": "_policyId",
          "type": "uint256"
        }
      ],
      "name": "viewPolicy",
      "outputs": [
        {
          "components": [
            {
              "internalType": "address",
              "name": "owner",
              "type": "address"
            },
            {
              "internalType": "string",
              "name": "petName",
              "type": "string"
            },
            {
              "internalType": "string",
              "name": "imageURI",
              "type": "string"
            },
            {
              "internalType": "uint256",
              "name": "insuredAmount",
              "type": "uint256"
            },
            {
              "internalType": "uint256",
              "name": "startDate",
              "type": "uint256"
            },
            {
              "internalType": "uint256",
              "name": "endDate",
              "type": "uint256"
            },
            {
              "internalType": "bool",
              "name": "active",
              "type": "bool"
            },
            {
              "internalType": "uint256",
              "name": "claimCount",
              "type": "uint256"
            }
          ],
          "internalType": "struct PetPolicy.Policy",
          "name": "",
          "type": "tuple"
        }
      ],
      "stateMutability": "view",
      "type": "function"
    }
  ],
  "bytecode": "0x608060405234801561001057600080fd5b50611d25806100206000396000f3fe6080604052600436106100915760003560e01c80639b70e2fb116100595780639b70e2fb14610196578063af0162a7146101c1578063eb4a4645146101ec578063f059d78e14610215578063fc93ca061461024057610091565b806354a246b9146100965780636aa14a96146100c157806381710c78146100ea57806390b4f12b1461011557806397e6891114610159575b600080fd5b3480156100a257600080fd5b506100ab610270565b6040516100b89190610fe3565b60405180910390f35b3480156100cd57600080fd5b506100e860048036038101906100e3919061103e565b61027b565b005b3480156100f657600080fd5b506100ff610467565b60405161010c91906112df565b60405180910390f35b34801561012157600080fd5b5061013c6004803603810190610137919061132d565b6106c0565b6040516101509897969594939291906113d5565b60405180910390f35b34801561016557600080fd5b50610180600480360381019061017b919061103e565b610862565b60405161018d9190611518565b60405180910390f35b3480156101a257600080fd5b506101ab610b1b565b6040516101b89190610fe3565b60405180910390f35b3480156101cd57600080fd5b506101d6610b23565b6040516101e39190610fe3565b60405180910390f35b3480156101f857600080fd5b50610213600480360381019061020e919061103e565b610b2f565b005b34801561022157600080fd5b5061022a610cd5565b6040516102379190610fe3565b60405180910390f35b61025a6004803603810190610255919061166f565b610cdb565b6040516102679190610fe3565b60405180910390f35b662386f26fc1000081565b6000803373ffffffffffffffffffffffffffffffffffffffff1673ffffffffffffffffffffffffffffffffffffffff1681526020019081526020016000208054905081106102fe576040517f08c379a00000000000000000000000000000000000000000000000000000000081526004016102f590611733565b60405180910390fd5b60008060003373ffffffffffffffffffffffffffffffffffffffff1673ffffffffffffffffffffffffffffffffffffffff16815260200190815260200160002082815481106103505761034f611753565b5b906000526020600020906008020190508060060160009054906101000a900460ff166103b1576040517f08c379a00000000000000000000000000000000000000000000000000000000081526004016103a8906117ce565b60405180910390fd5b80600501544211156103f8576040517f08c379a00000000000000000000000000000000000000000000000000000000081526004016103ef9061183a565b60405180910390fd5b600181600701600082825461040d9190611889565b92505081905550813373ffffffffffffffffffffffffffffffffffffffff167ffe6542b2c812f9d65d4ea6f1d81bcd2e556c05bf33b6697ab14179aa484cfcc24260405161045b9190610fe3565b60405180910390a35050565b60606000803373ffffffffffffffffffffffffffffffffffffffff1673ffffffffffffffffffffffffffffffffffffffff168152602001908152602001600020805480602002602001604051908101604052809291908181526020016000905b828210156106b75783829060005260206000209060080201604051806101000160405290816000820160009054906101000a900473ffffffffffffffffffffffffffffffffffffffff1673ffffffffffffffffffffffffffffffffffffffff1673ffffffffffffffffffffffffffffffffffffffff168152602001600182018054610551906118ec565b80601f016020809104026020016040519081016040528092919081815260200182805461057d906118ec565b80156105ca5780601f1061059f576101008083540402835291602001916105ca565b820191906000526020600020905b8154815290600101906020018083116105ad57829003601f168201915b505050505081526020016002820180546105e3906118ec565b80601f016020809104026020016040519081016040528092919081815260200182805461060f906118ec565b801561065c5780601f106106315761010080835404028352916020019161065c565b820191906000526020600020905b81548152906001019060200180831161063f57829003601f168201915b505050505081526020016003820154815260200160048201548152602001600582015481526020016006820160009054906101000a900460ff16151515158152602001600782015481525050815260200190600101906104c7565b50505050905090565b600060205281600052604060002081815481106106dc57600080fd5b9060005260206000209060080201600091509150508060000160009054906101000a900473ffffffffffffffffffffffffffffffffffffffff1690806001018054610726906118ec565b80601f0160208091040260200160405190810160405280929190818152602001828054610752906118ec565b801561079f5780601f106107745761010080835404028352916020019161079f565b820191906000526020600020905b81548152906001019060200180831161078257829003601f168201915b5050505050908060020180546107b4906118ec565b80601f01602080910402602001604051908101604052809291908181526020018280546107e0906118ec565b801561082d5780601f106108025761010080835404028352916020019161082d565b820191906000526020600020905b81548152906001019060200180831161081057829003601f168201915b5050505050908060030154908060040154908060050154908060060160009054906101000a900460ff16908060070154905088565b61086a610f6d565b6000803373ffffffffffffffffffffffffffffffffffffffff1673ffffffffffffffffffffffffffffffffffffffff1681526020019081526020016000208054905082106108ed576040517f08c379a00000000000000000000000000000000000000000000000000000000081526004016108e490611733565b60405180910390fd5b6000803373ffffffffffffffffffffffffffffffffffffffff1673ffffffffffffffffffffffffffffffffffffffff168152602001908152602001600020828154811061093d5761093c611753565b5b9060005260206000209060080201604051806101000160405290816000820160009054906101000a900473ffffffffffffffffffffffffffffffffffffffff1673ffffffffffffffffffffffffffffffffffffffff1673ffffffffffffffffffffffffffffffffffffffff1681526020016001820180546109bd906118ec565b80601f01602080910402602001604051908101604052809291908181526020018280546109e9906118ec565b8015610a365780601f10610a0b57610100808354040283529160200191610a36565b820191906000526020600020905b815481529060010190602001808311610a1957829003601f168201915b50505050508152602001600282018054610a4f906118ec565b80601f0160208091040260200160405190810160405280929190818152602001828054610a7b906118ec565b8015610ac85780601f10610a9d57610100808354040283529160200191610ac8565b820191906000526020600020905b815481529060010190602001808311610aab57829003601f168201915b505050505081526020016003820154815260200160048201548152602001600582015481526020016006820160009054906101000a900460ff161515151581526020016007820154815250509050919050565b6301e1338081565b670de0b6b3a764000081565b6000803373ffffffffffffffffffffffffffffffffffffffff1673ffffffffffffffffffffffffffffffffffffffff168152602001908152602001600020805490508110610bb2576040517f08c379a0000000000000000000000000000000000000000000000000000000008152600401610ba990611733565b60405180910390fd5b60008060003373ffffffffffffffffffffffffffffffffffffffff1673ffffffffffffffffffffffffffffffffffffffff1681526020019081526020016000208281548110610c0457610c03611753565b5b906000526020600020906008020190508060060160009054906101000a900460ff16610c65576040517f08c379a0000000000000000000000000000000000000000000000000000000008152600401610c5c90611969565b60405180910390fd5b60008160060160006101000a81548160ff021916908315150217905550813373ffffffffffffffffffffffffffffffffffffffff167f33c1438d1685c2b883aaa3d6ba4bd1fd586e9de9a8663088f6ee3f68265f75ef42604051610cc99190610fe3565b60405180910390a35050565b60015481565b6000662386f26fc100003414610d26576040517f08c379a0000000000000000000000000000000000000000000000000000000008152600401610d1d906119d5565b60405180910390fd5b6000803373ffffffffffffffffffffffffffffffffffffffff1673ffffffffffffffffffffffffffffffffffffffff1681526020019081526020016000206040518061010001604052803373ffffffffffffffffffffffffffffffffffffffff168152602001858152602001848152602001670de0b6b3a764000081526020014281526020016301e1338042610dbc9190611889565b81526020016001151581526020016000815250908060018154018082558091505060019003906000526020600020906008020160009091909190915060008201518160000160006101000a81548173ffffffffffffffffffffffffffffffffffffffff021916908373ffffffffffffffffffffffffffffffffffffffff1602179055506020820151816001019081610e549190611ba1565b506040820151816002019081610e6a9190611ba1565b50606082015181600301556080820151816004015560a0820151816005015560c08201518160060160006101000a81548160ff02191690831515021790555060e082015181600701555050600060016000803373ffffffffffffffffffffffffffffffffffffffff1673ffffffffffffffffffffffffffffffffffffffff16815260200190815260200160002080549050610f059190611c73565b905060016000815480929190610f1a90611ca7565b9190505550803373ffffffffffffffffffffffffffffffffffffffff167f0c82a59457f321d45ec38f6aaf95786bb68907c4273ed492d000832b5951c48660405160405180910390a38091505092915050565b604051806101000160405280600073ffffffffffffffffffffffffffffffffffffffff1681526020016060815260200160608152602001600081526020016000815260200160008152602001600015158152602001600081525090565b6000819050919050565b610fdd81610fca565b82525050565b6000602082019050610ff86000830184610fd4565b92915050565b6000604051905090565b600080fd5b600080fd5b61101b81610fca565b811461102657600080fd5b50565b60008135905061103881611012565b92915050565b60006020828403121561105457611053611008565b5b600061106284828501611029565b91505092915050565b600081519050919050565b600082825260208201905092915050565b6000819050602082019050919050565b600073ffffffffffffffffffffffffffffffffffffffff82169050919050565b60006110c282611097565b9050919050565b6110d2816110b7565b82525050565b600081519050919050565b600082825260208201905092915050565b60005b838110156111125780820151818401526020810190506110f7565b60008484015250505050565b6000601f19601f8301169050919050565b600061113a826110d8565b61114481856110e3565b93506111548185602086016110f4565b61115d8161111e565b840191505092915050565b61117181610fca565b82525050565b60008115159050919050565b61118c81611177565b82525050565b6000610100830160008301516111ab60008601826110c9565b50602083015184820360208601526111c3828261112f565b915050604083015184820360408601526111dd828261112f565b91505060608301516111f26060860182611168565b5060808301516112056080860182611168565b5060a083015161121860a0860182611168565b5060c083015161122b60c0860182611183565b5060e083015161123e60e0860182611168565b508091505092915050565b60006112558383611192565b905092915050565b6000602082019050919050565b60006112758261106b565b61127f8185611076565b93508360208202850161129185611087565b8060005b858110156112cd57848403895281516112ae8582611249565b94506112b98361125d565b925060208a01995050600181019050611295565b50829750879550505050505092915050565b600060208201905081810360008301526112f9818461126a565b905092915050565b61130a816110b7565b811461131557600080fd5b50565b60008135905061132781611301565b92915050565b6000806040838503121561134457611343611008565b5b600061135285828601611318565b925050602061136385828601611029565b9150509250929050565b611376816110b7565b82525050565b600082825260208201905092915050565b6000611398826110d8565b6113a2818561137c565b93506113b28185602086016110f4565b6113bb8161111e565b840191505092915050565b6113cf81611177565b82525050565b6000610100820190506113eb600083018b61136d565b81810360208301526113fd818a61138d565b90508181036040830152611411818961138d565b90506114206060830188610fd4565b61142d6080830187610fd4565b61143a60a0830186610fd4565b61144760c08301856113c6565b61145460e0830184610fd4565b9998505050505050505050565b60006101008301600083015161147a60008601826110c9565b5060208301518482036020860152611492828261112f565b915050604083015184820360408601526114ac828261112f565b91505060608301516114c16060860182611168565b5060808301516114d46080860182611168565b5060a08301516114e760a0860182611168565b5060c08301516114fa60c0860182611183565b5060e083015161150d60e0860182611168565b508091505092915050565b600060208201905081810360008301526115328184611461565b905092915050565b600080fd5b600080fd5b7f4e487b7100000000000000000000000000000000000000000000000000000000600052604160045260246000fd5b61157c8261111e565b810181811067ffffffffffffffff8211171561159b5761159a611544565b5b80604052505050565b60006115ae610ffe565b90506115ba8282611573565b919050565b600067ffffffffffffffff8211156115da576115d9611544565b5b6115e38261111e565b9050602081019050919050565b82818337600083830152505050565b600061161261160d846115bf565b6115a4565b90508281526020810184848401111561162e5761162d61153f565b5b6116398482856115f0565b509392505050565b600082601f8301126116565761165561153a565b5b81356116668482602086016115ff565b91505092915050565b6000806040838503121561168657611685611008565b5b600083013567ffffffffffffffff8111156116a4576116a361100d565b5b6116b085828601611641565b925050602083013567ffffffffffffffff8111156116d1576116d061100d565b5b6116dd85828601611641565b9150509250929050565b7f506f6c69637920646f6573206e6f742065786973740000000000000000000000600082015250565b600061171d60158361137c565b9150611728826116e7565b602082019050919050565b6000602082019050818103600083015261174c81611710565b9050919050565b7f4e487b7100000000000000000000000000000000000000000000000000000000600052603260045260246000fd5b7f506f6c696379206973206e6f7420616374697665000000000000000000000000600082015250565b60006117b860148361137c565b91506117c382611782565b602082019050919050565b600060208201905081810360008301526117e7816117ab565b9050919050565b7f506f6c6963792065787069726564000000000000000000000000000000000000600082015250565b6000611824600e8361137c565b915061182f826117ee565b602082019050919050565b6000602082019050818103600083015261185381611817565b9050919050565b7f4e487b7100000000000000000000000000000000000000000000000000000000600052601160045260246000fd5b600061189482610fca565b915061189f83610fca565b92508282019050808211156118b7576118b661185a565b5b92915050565b7f4e487b7100000000000000000000000000000000000000000000000000000000600052602260045260246000fd5b6000600282049050600182168061190457607f821691505b602082108103611917576119166118bd565b5b50919050565b7f506f6c69637920616c726561647920696e616374697665000000000000000000600082015250565b600061195360178361137c565b915061195e8261191d565b602082019050919050565b6000602082019050818103600083015261198281611946565b9050919050565b7f496e636f7272656374207072656d69756d207061796d656e7400000000000000600082015250565b60006119bf60198361137c565b91506119ca82611989565b602082019050919050565b600060208201905081810360008301526119ee816119b2565b9050919050565b60008190508160005260206000209050919050565b60006020601f8301049050919050565b600082821b905092915050565b600060088302611a577fffffffffffffffffffffffffffffffffffffffffffffffffffffffffffffffff82611a1a565b611a618683611a1a565b95508019841693508086168417925050509392505050565b6000819050919050565b6000611a9e611a99611a9484610fca565b611a79565b610fca565b9050919050565b6000819050919050565b611ab883611a83565b611acc611ac482611aa5565b848454611a27565b825550505050565b600090565b611ae1611ad4565b611aec818484611aaf565b505050565b5b81811015611b1057611b05600082611ad9565b600181019050611af2565b5050565b601f821115611b5557611b26816119f5565b611b2f84611a0a565b81016020851015611b3e578190505b611b52611b4a85611a0a565b830182611af1565b50505b505050565b600082821c905092915050565b6000611b7860001984600802611b5a565b1980831691505092915050565b6000611b918383611b67565b9150826002028217905092915050565b611baa826110d8565b67ffffffffffffffff811115611bc357611bc2611544565b5b611bcd82546118ec565b611bd8828285611b14565b600060209050601f831160018114611c0b5760008415611bf9578287015190505b611c038582611b85565b865550611c6b565b601f198416611c19866119f5565b60005b82811015611c4157848901518255600182019150602085019450602081019050611c1c565b86831015611c5e5784890151611c5a601f891682611b67565b8355505b6001600288020188555050505b505050505050565b6000611c7e82610fca565b9150611c8983610fca565b9250828203905081811115611ca157611ca061185a565b5b92915050565b6000611cb282610fca565b91507fffffffffffffffffffffffffffffffffffffffffffffffffffffffffffffffff8203611ce457611ce361185a565b5b60018201905091905056fea2646970667358221220aa05b29c06d880a8d3563308b02f419b0959d5153d87b08f159460d053cfcc5664736f6c63430008140033",
  "linkReferences": {},
  "deployedLinkReferences": {}
}